{
  "_format": "hh-sol-artifact-1",
  "contractName": "Lottery",
  "sourceName": "contracts/lottery.sol",
  "abi": [
    {
      "inputs": [],
      "stateMutability": "nonpayable",
      "type": "constructor"
    },
    {
      "inputs": [],
      "name": "owner",
      "outputs": [
        {
          "internalType": "address",
          "name": "",
          "type": "address"
        }
      ],
      "stateMutability": "view",
      "type": "function"
    },
    {
      "inputs": [
        {
          "internalType": "uint256",
          "name": "",
          "type": "uint256"
        }
      ],
      "name": "participants",
      "outputs": [
        {
          "internalType": "address",
          "name": "",
          "type": "address"
        }
      ],
      "stateMutability": "view",
      "type": "function"
    },
    {
      "inputs": [],
      "name": "registerParticipants",
      "outputs": [],
      "stateMutability": "payable",
      "type": "function"
    },
    {
      "inputs": [],
      "name": "tellOwner",
      "outputs": [
        {
          "internalType": "address",
          "name": "ownera",
          "type": "address"
        }
      ],
      "stateMutability": "nonpayable",
      "type": "function"
    },
    {
      "inputs": [],
      "name": "winner",
      "outputs": [
        {
          "internalType": "address",
          "name": "",
          "type": "address"
        }
      ],
      "stateMutability": "view",
      "type": "function"
    }
  ],
  "bytecode": "0x608060405234801561001057600080fd5b50336000806101000a81548173ffffffffffffffffffffffffffffffffffffffff021916908373ffffffffffffffffffffffffffffffffffffffff160217905550426002819055506103d4806100676000396000f3fe60806040526004361061004a5760003560e01c806311809b0a1461004f57806335c1d3491461007a5780638da5cb5b146100b7578063dfbf53ae146100e2578063e9e4d4fc1461010d575b600080fd5b34801561005b57600080fd5b50610064610117565b60405161007191906102ab565b60405180910390f35b34801561008657600080fd5b506100a1600480360381019061009c9190610273565b610140565b6040516100ae91906102ab565b60405180910390f35b3480156100c357600080fd5b506100cc61017f565b6040516100d991906102ab565b60405180910390f35b3480156100ee57600080fd5b506100f76101a3565b60405161010491906102ab565b60405180910390f35b6101156101c9565b005b60008060009054906101000a900473ffffffffffffffffffffffffffffffffffffffff16905090565b6001818154811061015057600080fd5b906000526020600020016000915054906101000a900473ffffffffffffffffffffffffffffffffffffffff1681565b60008054906101000a900473ffffffffffffffffffffffffffffffffffffffff1681565b600360009054906101000a900473ffffffffffffffffffffffffffffffffffffffff1681565b67016345785d8a000034146101dd57600080fd5b610e106002546101ed91906102c6565b4211156101f957600080fd5b6001339080600181540180825580915050600190039060005260206000200160009091909190916101000a81548173ffffffffffffffffffffffffffffffffffffffff021916908373ffffffffffffffffffffffffffffffffffffffff160217905550565b60008135905061026d81610387565b92915050565b60006020828403121561028557600080fd5b60006102938482850161025e565b91505092915050565b6102a58161031c565b82525050565b60006020820190506102c0600083018461029c565b92915050565b60006102d18261034e565b91506102dc8361034e565b9250827fffffffffffffffffffffffffffffffffffffffffffffffffffffffffffffffff0382111561031157610310610358565b5b828201905092915050565b60006103278261032e565b9050919050565b600073ffffffffffffffffffffffffffffffffffffffff82169050919050565b6000819050919050565b7f4e487b7100000000000000000000000000000000000000000000000000000000600052601160045260246000fd5b6103908161034e565b811461039b57600080fd5b5056fea2646970667358221220bb614b11990014f8a0f5aa77589929d63c91a9bcb879bc12f6ccc22bae9251f264736f6c63430008000033",
  "linkReferences": {},
  "deployedLinkReferences": {}
}